{
  "_format": "hh-sol-artifact-1",
  "contractName": "HarvestToken",
  "sourceName": "contracts/HarvestToken.sol",
  "abi": [
    {
      "inputs": [],
      "stateMutability": "nonpayable",
      "type": "constructor"
    },
    {
      "inputs": [
        {
          "internalType": "address",
          "name": "spender",
          "type": "address"
        },
        {
          "internalType": "uint256",
          "name": "allowance",
          "type": "uint256"
        },
        {
          "internalType": "uint256",
          "name": "needed",
          "type": "uint256"
        }
      ],
      "name": "ERC20InsufficientAllowance",
      "type": "error"
    },
    {
      "inputs": [
        {
          "internalType": "address",
          "name": "sender",
          "type": "address"
        },
        {
          "internalType": "uint256",
          "name": "balance",
          "type": "uint256"
        },
        {
          "internalType": "uint256",
          "name": "needed",
          "type": "uint256"
        }
      ],
      "name": "ERC20InsufficientBalance",
      "type": "error"
    },
    {
      "inputs": [
        {
          "internalType": "address",
          "name": "approver",
          "type": "address"
        }
      ],
      "name": "ERC20InvalidApprover",
      "type": "error"
    },
    {
      "inputs": [
        {
          "internalType": "address",
          "name": "receiver",
          "type": "address"
        }
      ],
      "name": "ERC20InvalidReceiver",
      "type": "error"
    },
    {
      "inputs": [
        {
          "internalType": "address",
          "name": "sender",
          "type": "address"
        }
      ],
      "name": "ERC20InvalidSender",
      "type": "error"
    },
    {
      "inputs": [
        {
          "internalType": "address",
          "name": "spender",
          "type": "address"
        }
      ],
      "name": "ERC20InvalidSpender",
      "type": "error"
    },
    {
      "inputs": [
        {
          "internalType": "address",
          "name": "owner",
          "type": "address"
        }
      ],
      "name": "OwnableInvalidOwner",
      "type": "error"
    },
    {
      "inputs": [
        {
          "internalType": "address",
          "name": "account",
          "type": "address"
        }
      ],
      "name": "OwnableUnauthorizedAccount",
      "type": "error"
    },
    {
      "inputs": [],
      "name": "ReentrancyGuardReentrantCall",
      "type": "error"
    },
    {
      "anonymous": false,
      "inputs": [
        {
          "indexed": true,
          "internalType": "address",
          "name": "owner",
          "type": "address"
        },
        {
          "indexed": true,
          "internalType": "address",
          "name": "spender",
          "type": "address"
        },
        {
          "indexed": false,
          "internalType": "uint256",
          "name": "value",
          "type": "uint256"
        }
      ],
      "name": "Approval",
      "type": "event"
    },
    {
      "anonymous": false,
      "inputs": [
        {
          "indexed": true,
          "internalType": "address",
          "name": "farmer",
          "type": "address"
        },
        {
          "indexed": false,
          "internalType": "uint256",
          "name": "cropId",
          "type": "uint256"
        },
        {
          "indexed": false,
          "internalType": "uint256",
          "name": "reward",
          "type": "uint256"
        }
      ],
      "name": "CropHarvested",
      "type": "event"
    },
    {
      "anonymous": false,
      "inputs": [
        {
          "indexed": true,
          "internalType": "address",
          "name": "farmer",
          "type": "address"
        },
        {
          "indexed": false,
          "internalType": "uint256",
          "name": "cropId",
          "type": "uint256"
        },
        {
          "indexed": false,
          "internalType": "string",
          "name": "cropType",
          "type": "string"
        }
      ],
      "name": "CropPlanted",
      "type": "event"
    },
    {
      "anonymous": false,
      "inputs": [
        {
          "indexed": true,
          "internalType": "address",
          "name": "farmer",
          "type": "address"
        }
      ],
      "name": "FarmCreated",
      "type": "event"
    },
    {
      "anonymous": false,
      "inputs": [
        {
          "indexed": true,
          "internalType": "address",
          "name": "previousOwner",
          "type": "address"
        },
        {
          "indexed": true,
          "internalType": "address",
          "name": "newOwner",
          "type": "address"
        }
      ],
      "name": "OwnershipTransferred",
      "type": "event"
    },
    {
      "anonymous": false,
      "inputs": [
        {
          "indexed": true,
          "internalType": "address",
          "name": "from",
          "type": "address"
        },
        {
          "indexed": true,
          "internalType": "address",
          "name": "to",
          "type": "address"
        },
        {
          "indexed": false,
          "internalType": "uint256",
          "name": "value",
          "type": "uint256"
        }
      ],
      "name": "Transfer",
      "type": "event"
    },
    {
      "inputs": [],
      "name": "FARMING_REWARD",
      "outputs": [
        {
          "internalType": "uint256",
          "name": "",
          "type": "uint256"
        }
      ],
      "stateMutability": "view",
      "type": "function"
    },
    {
      "inputs": [],
      "name": "INITIAL_SUPPLY",
      "outputs": [
        {
          "internalType": "uint256",
          "name": "",
          "type": "uint256"
        }
      ],
      "stateMutability": "view",
      "type": "function"
    },
    {
      "inputs": [],
      "name": "PLANTING_COST",
      "outputs": [
        {
          "internalType": "uint256",
          "name": "",
          "type": "uint256"
        }
      ],
      "stateMutability": "view",
      "type": "function"
    },
    {
      "inputs": [
        {
          "internalType": "address",
          "name": "owner",
          "type": "address"
        },
        {
          "internalType": "address",
          "name": "spender",
          "type": "address"
        }
      ],
      "name": "allowance",
      "outputs": [
        {
          "internalType": "uint256",
          "name": "",
          "type": "uint256"
        }
      ],
      "stateMutability": "view",
      "type": "function"
    },
    {
      "inputs": [
        {
          "internalType": "address",
          "name": "spender",
          "type": "address"
        },
        {
          "internalType": "uint256",
          "name": "value",
          "type": "uint256"
        }
      ],
      "name": "approve",
      "outputs": [
        {
          "internalType": "bool",
          "name": "",
          "type": "bool"
        }
      ],
      "stateMutability": "nonpayable",
      "type": "function"
    },
    {
      "inputs": [
        {
          "internalType": "address",
          "name": "account",
          "type": "address"
        }
      ],
      "name": "balanceOf",
      "outputs": [
        {
          "internalType": "uint256",
          "name": "",
          "type": "uint256"
        }
      ],
      "stateMutability": "view",
      "type": "function"
    },
    {
      "inputs": [
        {
          "internalType": "uint256",
          "name": "",
          "type": "uint256"
        }
      ],
      "name": "crops",
      "outputs": [
        {
          "internalType": "uint256",
          "name": "plantedAt",
          "type": "uint256"
        },
        {
          "internalType": "uint256",
          "name": "growthTime",
          "type": "uint256"
        },
        {
          "internalType": "bool",
          "name": "isHarvested",
          "type": "bool"
        },
        {
          "internalType": "string",
          "name": "cropType",
          "type": "string"
        }
      ],
      "stateMutability": "view",
      "type": "function"
    },
    {
      "inputs": [],
      "name": "decimals",
      "outputs": [
        {
          "internalType": "uint8",
          "name": "",
          "type": "uint8"
        }
      ],
      "stateMutability": "view",
      "type": "function"
    },
    {
      "inputs": [
        {
          "internalType": "address",
          "name": "",
          "type": "address"
        }
      ],
      "name": "farms",
      "outputs": [
        {
          "internalType": "uint256",
          "name": "totalHarvested",
          "type": "uint256"
        },
        {
          "internalType": "uint256",
          "name": "lastHarvestTime",
          "type": "uint256"
        }
      ],
      "stateMutability": "view",
      "type": "function"
    },
    {
      "inputs": [
        {
          "internalType": "uint256",
          "name": "cropId",
          "type": "uint256"
        }
      ],
      "name": "getCrop",
      "outputs": [
        {
          "components": [
            {
              "internalType": "uint256",
              "name": "plantedAt",
              "type": "uint256"
            },
            {
              "internalType": "uint256",
              "name": "growthTime",
              "type": "uint256"
            },
            {
              "internalType": "bool",
              "name": "isHarvested",
              "type": "bool"
            },
            {
              "internalType": "string",
              "name": "cropType",
              "type": "string"
            }
          ],
          "internalType": "struct HarvestToken.Crop",
          "name": "",
          "type": "tuple"
        }
      ],
      "stateMutability": "view",
      "type": "function"
    },
    {
      "inputs": [
        {
          "internalType": "address",
          "name": "farmer",
          "type": "address"
        }
      ],
      "name": "getFarm",
      "outputs": [
        {
          "internalType": "uint256[]",
          "name": "cropIds",
          "type": "uint256[]"
        },
        {
          "internalType": "uint256",
          "name": "totalHarvested",
          "type": "uint256"
        },
        {
          "internalType": "uint256",
          "name": "lastHarvestTime",
          "type": "uint256"
        }
      ],
      "stateMutability": "view",
      "type": "function"
    },
    {
      "inputs": [
        {
          "internalType": "address",
          "name": "farmer",
          "type": "address"
        }
      ],
      "name": "getReadyCrops",
      "outputs": [
        {
          "internalType": "uint256[]",
          "name": "",
          "type": "uint256[]"
        }
      ],
      "stateMutability": "view",
      "type": "function"
    },
    {
      "inputs": [
        {
          "internalType": "uint256",
          "name": "cropId",
          "type": "uint256"
        }
      ],
      "name": "harvestCrop",
      "outputs": [],
      "stateMutability": "nonpayable",
      "type": "function"
    },
    {
      "inputs": [
        {
          "internalType": "address",
          "name": "to",
          "type": "address"
        },
        {
          "internalType": "uint256",
          "name": "amount",
          "type": "uint256"
        }
      ],
      "name": "mint",
      "outputs": [],
      "stateMutability": "nonpayable",
      "type": "function"
    },
    {
      "inputs": [],
      "name": "name",
      "outputs": [
        {
          "internalType": "string",
          "name": "",
          "type": "string"
        }
      ],
      "stateMutability": "view",
      "type": "function"
    },
    {
      "inputs": [],
      "name": "nextCropId",
      "outputs": [
        {
          "internalType": "uint256",
          "name": "",
          "type": "uint256"
        }
      ],
      "stateMutability": "view",
      "type": "function"
    },
    {
      "inputs": [],
      "name": "owner",
      "outputs": [
        {
          "internalType": "address",
          "name": "",
          "type": "address"
        }
      ],
      "stateMutability": "view",
      "type": "function"
    },
    {
      "inputs": [
        {
          "internalType": "string",
          "name": "cropType",
          "type": "string"
        }
      ],
      "name": "plantCrop",
      "outputs": [],
      "stateMutability": "nonpayable",
      "type": "function"
    },
    {
      "inputs": [],
      "name": "renounceOwnership",
      "outputs": [],
      "stateMutability": "nonpayable",
      "type": "function"
    },
    {
      "inputs": [],
      "name": "symbol",
      "outputs": [
        {
          "internalType": "string",
          "name": "",
          "type": "string"
        }
      ],
      "stateMutability": "view",
      "type": "function"
    },
    {
      "inputs": [],
      "name": "totalSupply",
      "outputs": [
        {
          "internalType": "uint256",
          "name": "",
          "type": "uint256"
        }
      ],
      "stateMutability": "view",
      "type": "function"
    },
    {
      "inputs": [
        {
          "internalType": "address",
          "name": "to",
          "type": "address"
        },
        {
          "internalType": "uint256",
          "name": "value",
          "type": "uint256"
        }
      ],
      "name": "transfer",
      "outputs": [
        {
          "internalType": "bool",
          "name": "",
          "type": "bool"
        }
      ],
      "stateMutability": "nonpayable",
      "type": "function"
    },
    {
      "inputs": [
        {
          "internalType": "address",
          "name": "from",
          "type": "address"
        },
        {
          "internalType": "address",
          "name": "to",
          "type": "address"
        },
        {
          "internalType": "uint256",
          "name": "value",
          "type": "uint256"
        }
      ],
      "name": "transferFrom",
      "outputs": [
        {
          "internalType": "bool",
          "name": "",
          "type": "bool"
        }
      ],
      "stateMutability": "nonpayable",
      "type": "function"
    },
    {
      "inputs": [
        {
          "internalType": "address",
          "name": "newOwner",
          "type": "address"
        }
      ],
      "name": "transferOwnership",
      "outputs": [],
      "stateMutability": "nonpayable",
      "type": "function"
    }
  ],
  "bytecode": "0x608060405260016009553480156200001657600080fd5b50336040518060400160405280600d81526020016c2430b93b32b9ba102a37b5b2b760991b81525060405180604001604052806007815260200166121054959154d560ca1b81525081600390816200006f919062000346565b5060046200007e828262000346565b5050506001600160a01b038116620000b157604051631e4fbdf760e01b8152600060048201526024015b60405180910390fd5b620000bc81620000de565b506001600655620000d83369d3c21bcecceda100000062000130565b6200043a565b600580546001600160a01b038381166001600160a01b0319831681179093556040519116919082907f8be0079c531659141344cd1fd0a4f28419497f9722a3daafe3b4186f6b6457e090600090a35050565b6001600160a01b0382166200015c5760405163ec442f0560e01b815260006004820152602401620000a8565b6200016a600083836200016e565b5050565b6001600160a01b0383166200019d57806002600082825462000191919062000412565b90915550620002119050565b6001600160a01b03831660009081526020819052604090205481811015620001f25760405163391434e360e21b81526001600160a01b03851660048201526024810182905260448101839052606401620000a8565b6001600160a01b03841660009081526020819052604090209082900390555b6001600160a01b0382166200022f576002805482900390556200024e565b6001600160a01b03821660009081526020819052604090208054820190555b816001600160a01b0316836001600160a01b03167fddf252ad1be2c89b69c2b068fc378daa952ba7f163c4a11628f55a4df523b3ef836040516200029491815260200190565b60405180910390a3505050565b634e487b7160e01b600052604160045260246000fd5b600181811c90821680620002cc57607f821691505b602082108103620002ed57634e487b7160e01b600052602260045260246000fd5b50919050565b601f8211156200034157600081815260208120601f850160051c810160208610156200031c5750805b601f850160051c820191505b818110156200033d5782815560010162000328565b5050505b505050565b81516001600160401b03811115620003625762000362620002a1565b6200037a81620003738454620002b7565b84620002f3565b602080601f831160018114620003b25760008415620003995750858301515b600019600386901b1c1916600185901b1785556200033d565b600085815260208120601f198616915b82811015620003e357888601518255948401946001909101908401620003c2565b5085821015620004025787850151600019600388901b60f8161c191681555b5050505050600190811b01905550565b808201808211156200043457634e487b7160e01b600052601160045260246000fd5b92915050565b61153a806200044a6000396000f3fe608060405234801561001057600080fd5b50600436106101585760003560e01c80635d0cc38f116100c35780638da5cb5b1161007c5780638da5cb5b1461033157806395d89b411461034c578063a9059cbb14610354578063dd62ed3e14610367578063f2fde38b146103a0578063f41cc397146103b357600080fd5b80635d0cc38f1461028a57806370a082311461029d57806370c9f1a5146102c6578063715018a6146102e95780637e50938d146102f15780638bc7fa9c1461031157600080fd5b8063313ce56711610115578063313ce567146101e95780633bfc187c146101f857806340c10f191461021a578063421adfa01461022d57806348b205991461026c5780634a1e16b21461027b57600080fd5b806306fdde031461015d578063095ea7b31461017b5780630e6708961461019e57806318160ddd146101b357806323b872dd146101c55780632ff2e9dc146101d8575b600080fd5b6101656103bc565b604051610172919061109a565b60405180910390f35b61018e6101893660046110d0565b61044e565b6040519015158152602001610172565b6101b16101ac366004611110565b610468565b005b6002545b604051908152602001610172565b61018e6101d33660046111c1565b6105da565b6101b769d3c21bcecceda100000081565b60405160128152602001610172565b61020b6102063660046111fd565b6105fe565b60405161017293929190611253565b6101b16102283660046110d0565b610687565b61025761023b3660046111fd565b6007602052600090815260409020600181015460029091015482565b60408051928352602083019190915201610172565b6101b7678ac7230489e8000081565b6101b7674563918244f4000081565b6101b1610298366004611278565b61069d565b6101b76102ab3660046111fd565b6001600160a01b031660009081526020819052604090205490565b6102d96102d4366004611278565b61086e565b6040516101729493929190611291565b6101b1610925565b6103046102ff3660046111fd565b610939565b60405161017291906112c2565b61032461031f366004611278565b610aef565b60405161017291906112d5565b6005546040516001600160a01b039091168152602001610172565b610165610bf8565b61018e6103623660046110d0565b610c07565b6101b7610375366004611318565b6001600160a01b03918216600090815260016020908152604080832093909416825291909152205490565b6101b16103ae3660046111fd565b610c15565b6101b760095481565b6060600380546103cb9061134b565b80601f01602080910402602001604051908101604052809291908181526020018280546103f79061134b565b80156104445780601f1061041957610100808354040283529160200191610444565b820191906000526020600020905b81548152906001019060200180831161042757829003601f168201915b5050505050905090565b60003361045c818585610c50565b60019150505b92915050565b610470610c62565b33600090815260208190526040902054674563918244f4000011156104dc5760405162461bcd60e51b815260206004820152601c60248201527f496e73756666696369656e7420746f6b656e7320746f20706c616e740000000060448201526064015b60405180910390fd5b6104ee33674563918244f40000610c8c565b60098054600091826104ff8361139b565b909155506040805160808101825242815261012c602080830191825260008385018181526060850189815287835260089093529490208351815591516001830155925160028201805460ff1916911515919091179055915192935091600382019061056a9082611402565b505033600081815260076020908152604080832080546001810182559084529190922001849055519091507f4ce89601fcbea5250490468fcf357cae34bb829ed32389460d58891288511f5e906105c490849086906114c2565b60405180910390a2506105d76001600655565b50565b6000336105e8858285610cc2565b6105f3858585610d41565b506001949350505050565b6001600160a01b038116600090815260076020908152604080832060018101546002820154825484518187028101870190955280855260609695869585949392909185919083018282801561067257602002820191906000526020600020905b81548152602001906001019080831161065e575b50505050509250935093509350509193909250565b61068f610da0565b6106998282610dcd565b5050565b6106a5610c62565b6000818152600860205260409020546106f65760405162461bcd60e51b815260206004820152601360248201527210dc9bdc08191bd95cc81b9bdd08195e1a5cdd606a1b60448201526064016104d3565b60008181526008602052604090206002015460ff16156107515760405162461bcd60e51b815260206004820152601660248201527510dc9bdc08185b1c9958591e481a185c9d995cdd195960521b60448201526064016104d3565b60008181526008602052604090206001810154905461077091906114db565b4210156107b05760405162461bcd60e51b815260206004820152600e60248201526d43726f70206e6f7420726561647960901b60448201526064016104d3565b6000818152600860209081526040808320600201805460ff1916600190811790915533845260079092528220018054678ac7230489e8000092906107f59084906114db565b90915550503360008181526007602052604090204260029091015561082290678ac7230489e80000610dcd565b60408051828152678ac7230489e80000602082015233917f1d2744d484bfd6c11eb698d6664c8bf1eb4260fbe4b9f99912e87eff5dd2ff82910160405180910390a26105d76001600655565b60086020526000908152604090208054600182015460028301546003840180549394929360ff90921692916108a29061134b565b80601f01602080910402602001604051908101604052809291908181526020018280546108ce9061134b565b801561091b5780601f106108f05761010080835404028352916020019161091b565b820191906000526020600020905b8154815290600101906020018083116108fe57829003601f168201915b5050505050905084565b61092d610da0565b6109376000610e03565b565b6001600160a01b038116600090815260076020526040812080546060929067ffffffffffffffff81111561096f5761096f6110fa565b604051908082528060200260200182016040528015610998578160200160208202803683370190505b5090506000805b8354811015610a495760008460000182815481106109bf576109bf6114ee565b60009182526020808320909101548083526008909152604090912060028101549192509060ff16158015610a035750600181015481546109ff91906114db565b4210155b15610a345781858581518110610a1b57610a1b6114ee565b602090810291909101015283610a308161139b565b9450505b50508080610a419061139b565b91505061099f565b5060008167ffffffffffffffff811115610a6557610a656110fa565b604051908082528060200260200182016040528015610a8e578160200160208202803683370190505b50905060005b82811015610ae557838181518110610aae57610aae6114ee565b6020026020010151828281518110610ac857610ac86114ee565b602090810291909101015280610add8161139b565b915050610a94565b5095945050505050565b610b1c60405180608001604052806000815260200160008152602001600015158152602001606081525090565b600082815260086020908152604091829020825160808101845281548152600182015492810192909252600281015460ff16151592820192909252600382018054919291606084019190610b6f9061134b565b80601f0160208091040260200160405190810160405280929190818152602001828054610b9b9061134b565b8015610be85780601f10610bbd57610100808354040283529160200191610be8565b820191906000526020600020905b815481529060010190602001808311610bcb57829003601f168201915b5050505050815250509050919050565b6060600480546103cb9061134b565b60003361045c818585610d41565b610c1d610da0565b6001600160a01b038116610c4757604051631e4fbdf760e01b8152600060048201526024016104d3565b6105d781610e03565b610c5d8383836001610e55565b505050565b600260065403610c8557604051633ee5aeb560e01b815260040160405180910390fd5b6002600655565b6001600160a01b038216610cb657604051634b637e8f60e11b8152600060048201526024016104d3565b61069982600083610f2a565b6001600160a01b03838116600090815260016020908152604080832093861683529290522054600019811015610d3b5781811015610d2c57604051637dc7a0d960e11b81526001600160a01b038416600482015260248101829052604481018390526064016104d3565b610d3b84848484036000610e55565b50505050565b6001600160a01b038316610d6b57604051634b637e8f60e11b8152600060048201526024016104d3565b6001600160a01b038216610d955760405163ec442f0560e01b8152600060048201526024016104d3565b610c5d838383610f2a565b6005546001600160a01b031633146109375760405163118cdaa760e01b81523360048201526024016104d3565b6001600160a01b038216610df75760405163ec442f0560e01b8152600060048201526024016104d3565b61069960008383610f2a565b600580546001600160a01b038381166001600160a01b0319831681179093556040519116919082907f8be0079c531659141344cd1fd0a4f28419497f9722a3daafe3b4186f6b6457e090600090a35050565b6001600160a01b038416610e7f5760405163e602df0560e01b8152600060048201526024016104d3565b6001600160a01b038316610ea957604051634a1406b160e11b8152600060048201526024016104d3565b6001600160a01b0380851660009081526001602090815260408083209387168352929052208290558015610d3b57826001600160a01b0316846001600160a01b03167f8c5be1e5ebec7d5bd14f71427d1e84f3dd0314c0f7b2291e5b200ac8c7c3b92584604051610f1c91815260200190565b60405180910390a350505050565b6001600160a01b038316610f55578060026000828254610f4a91906114db565b90915550610fc79050565b6001600160a01b03831660009081526020819052604090205481811015610fa85760405163391434e360e21b81526001600160a01b038516600482015260248101829052604481018390526064016104d3565b6001600160a01b03841660009081526020819052604090209082900390555b6001600160a01b038216610fe357600280548290039055611002565b6001600160a01b03821660009081526020819052604090208054820190555b816001600160a01b0316836001600160a01b03167fddf252ad1be2c89b69c2b068fc378daa952ba7f163c4a11628f55a4df523b3ef8360405161104791815260200190565b60405180910390a3505050565b6000815180845260005b8181101561107a5760208185018101518683018201520161105e565b506000602082860101526020601f19601f83011685010191505092915050565b6020815260006110ad6020830184611054565b9392505050565b80356001600160a01b03811681146110cb57600080fd5b919050565b600080604083850312156110e357600080fd5b6110ec836110b4565b946020939093013593505050565b634e487b7160e01b600052604160045260246000fd5b60006020828403121561112257600080fd5b813567ffffffffffffffff8082111561113a57600080fd5b818401915084601f83011261114e57600080fd5b813581811115611160576111606110fa565b604051601f8201601f19908116603f01168101908382118183101715611188576111886110fa565b816040528281528760208487010111156111a157600080fd5b826020860160208301376000928101602001929092525095945050505050565b6000806000606084860312156111d657600080fd5b6111df846110b4565b92506111ed602085016110b4565b9150604084013590509250925092565b60006020828403121561120f57600080fd5b6110ad826110b4565b600081518084526020808501945080840160005b838110156112485781518752958201959082019060010161122c565b509495945050505050565b6060815260006112666060830186611218565b60208301949094525060400152919050565b60006020828403121561128a57600080fd5b5035919050565b84815283602082015282151560408201526080606082015260006112b86080830184611054565b9695505050505050565b6020815260006110ad6020830184611218565b6020815281516020820152602082015160408201526040820151151560608201526000606083015160808084015261131060a0840182611054565b949350505050565b6000806040838503121561132b57600080fd5b611334836110b4565b9150611342602084016110b4565b90509250929050565b600181811c9082168061135f57607f821691505b60208210810361137f57634e487b7160e01b600052602260045260246000fd5b50919050565b634e487b7160e01b600052601160045260246000fd5b6000600182016113ad576113ad611385565b5060010190565b601f821115610c5d57600081815260208120601f850160051c810160208610156113db5750805b601f850160051c820191505b818110156113fa578281556001016113e7565b505050505050565b815167ffffffffffffffff81111561141c5761141c6110fa565b6114308161142a845461134b565b846113b4565b602080601f831160018114611465576000841561144d5750858301515b600019600386901b1c1916600185901b1785556113fa565b600085815260208120601f198616915b8281101561149457888601518255948401946001909101908401611475565b50858210156114b25787850151600019600388901b60f8161c191681555b5050505050600190811b01905550565b8281526040602082015260006113106040830184611054565b8082018082111561046257610462611385565b634e487b7160e01b600052603260045260246000fdfea264697066735822122012c91d32dfd15cc16ab251b6138e2472d9ef6cf68e747fbd6ee98835393ffec464736f6c63430008140033",
  "linkReferences": {},
  "deployedLinkReferences": {}
}